{
  "contractName": "EasyPropertyDeals",
  "abi": [
    {
      "anonymous": false,
      "inputs": [
        {
          "indexed": false,
          "internalType": "uint256",
          "name": "propertyId",
          "type": "uint256"
        },
        {
          "indexed": false,
          "internalType": "address",
          "name": "winner",
          "type": "address"
        },
        {
          "indexed": false,
          "internalType": "uint256",
          "name": "winningBid",
          "type": "uint256"
        }
      ],
      "name": "AuctionEnded",
      "type": "event"
    },
    {
      "anonymous": false,
      "inputs": [
        {
          "indexed": false,
          "internalType": "uint256",
          "name": "propertyId",
          "type": "uint256"
        },
        {
          "indexed": false,
          "internalType": "uint256",
          "name": "startingPrice",
          "type": "uint256"
        },
        {
          "indexed": false,
          "internalType": "uint256",
          "name": "auctionEndTime",
          "type": "uint256"
        }
      ],
      "name": "AuctionStarted",
      "type": "event"
    },
    {
      "anonymous": false,
      "inputs": [
        {
          "indexed": false,
          "internalType": "uint256",
          "name": "propertyPrice",
          "type": "uint256"
        },
        {
          "indexed": false,
          "internalType": "uint256",
          "name": "msgValue",
          "type": "uint256"
        },
        {
          "indexed": false,
          "internalType": "address",
          "name": "owner",
          "type": "address"
        }
      ],
      "name": "DebugInfo",
      "type": "event"
    },
    {
      "anonymous": false,
      "inputs": [
        {
          "indexed": false,
          "internalType": "uint256",
          "name": "propertyId",
          "type": "uint256"
        },
        {
          "indexed": false,
          "internalType": "address",
          "name": "bidder",
          "type": "address"
        },
        {
          "indexed": false,
          "internalType": "uint256",
          "name": "amount",
          "type": "uint256"
        }
      ],
      "name": "NewHighestBid",
      "type": "event"
    },
    {
      "anonymous": false,
      "inputs": [
        {
          "indexed": false,
          "internalType": "uint256",
          "name": "propertyId",
          "type": "uint256"
        },
        {
          "indexed": false,
          "internalType": "address",
          "name": "from",
          "type": "address"
        },
        {
          "indexed": false,
          "internalType": "address",
          "name": "to",
          "type": "address"
        }
      ],
      "name": "OwnershipTransferred",
      "type": "event"
    },
    {
      "anonymous": false,
      "inputs": [
        {
          "indexed": false,
          "internalType": "uint256",
          "name": "propertyId",
          "type": "uint256"
        },
        {
          "indexed": false,
          "internalType": "address",
          "name": "buyer",
          "type": "address"
        },
        {
          "indexed": false,
          "internalType": "uint256",
          "name": "amount",
          "type": "uint256"
        }
      ],
      "name": "PaymentReceived",
      "type": "event"
    },
    {
      "anonymous": false,
      "inputs": [
        {
          "indexed": false,
          "internalType": "uint256",
          "name": "propertyId",
          "type": "uint256"
        },
        {
          "indexed": false,
          "internalType": "uint256",
          "name": "newPrice",
          "type": "uint256"
        }
      ],
      "name": "PriceChanged",
      "type": "event"
    },
    {
      "anonymous": false,
      "inputs": [
        {
          "indexed": false,
          "internalType": "uint256",
          "name": "propertyId",
          "type": "uint256"
        },
        {
          "indexed": false,
          "internalType": "address",
          "name": "owner",
          "type": "address"
        },
        {
          "indexed": false,
          "internalType": "uint256",
          "name": "price",
          "type": "uint256"
        }
      ],
      "name": "PropertyListed",
      "type": "event"
    },
    {
      "inputs": [
        {
          "internalType": "uint256",
          "name": "",
          "type": "uint256"
        }
      ],
      "name": "properties",
      "outputs": [
        {
          "internalType": "uint256",
          "name": "id",
          "type": "uint256"
        },
        {
          "internalType": "address",
          "name": "owner",
          "type": "address"
        },
        {
          "internalType": "uint256",
          "name": "price",
          "type": "uint256"
        },
        {
          "internalType": "bool",
          "name": "isListed",
          "type": "bool"
        },
        {
          "internalType": "bool",
          "name": "isAuctionStarted",
          "type": "bool"
        },
        {
          "internalType": "uint256",
          "name": "auctionEndTime",
          "type": "uint256"
        },
        {
          "internalType": "address",
          "name": "highestBidder",
          "type": "address"
        },
        {
          "internalType": "uint256",
          "name": "highestBid",
          "type": "uint256"
        }
      ],
      "stateMutability": "view",
      "type": "function",
      "constant": true
    },
    {
      "inputs": [],
      "name": "propertyCounter",
      "outputs": [
        {
          "internalType": "uint256",
          "name": "",
          "type": "uint256"
        }
      ],
      "stateMutability": "view",
      "type": "function",
      "constant": true
    },
    {
      "inputs": [
        {
          "internalType": "uint256",
          "name": "_price",
          "type": "uint256"
        }
      ],
      "name": "listProperty",
      "outputs": [],
      "stateMutability": "nonpayable",
      "type": "function"
    },
    {
      "inputs": [
        {
          "internalType": "uint256",
          "name": "_propertyId",
          "type": "uint256"
        },
        {
          "internalType": "uint256",
          "name": "_propertyPrice",
          "type": "uint256"
        }
      ],
      "name": "buyProperty",
      "outputs": [],
      "stateMutability": "payable",
      "type": "function",
      "payable": true
    },
    {
      "inputs": [
        {
          "internalType": "uint256",
          "name": "_propertyId",
          "type": "uint256"
        },
        {
          "internalType": "uint256",
          "name": "_newPrice",
          "type": "uint256"
        }
      ],
      "name": "changePrice",
      "outputs": [],
      "stateMutability": "nonpayable",
      "type": "function"
    },
    {
      "inputs": [
        {
          "internalType": "uint256",
          "name": "_propertyId",
          "type": "uint256"
        },
        {
          "internalType": "uint256",
          "name": "_startingPrice",
          "type": "uint256"
        },
        {
          "internalType": "uint256",
          "name": "_duration",
          "type": "uint256"
        }
      ],
      "name": "startAuction",
      "outputs": [],
      "stateMutability": "nonpayable",
      "type": "function"
    },
    {
      "inputs": [
        {
          "internalType": "uint256",
          "name": "_propertyId",
          "type": "uint256"
        },
        {
          "internalType": "uint256",
          "name": "_bidPrice",
          "type": "uint256"
        }
      ],
      "name": "bid",
      "outputs": [],
      "stateMutability": "payable",
      "type": "function",
      "payable": true
    },
    {
      "inputs": [
        {
          "internalType": "uint256",
          "name": "_propertyId",
          "type": "uint256"
        }
      ],
      "name": "endAuction",
      "outputs": [],
      "stateMutability": "nonpayable",
      "type": "function"
    },
    {
      "inputs": [
        {
          "internalType": "uint256",
          "name": "_propertyId",
          "type": "uint256"
        },
        {
          "internalType": "uint256",
          "name": "_decrement",
          "type": "uint256"
        },
        {
          "internalType": "uint256",
          "name": "_interval",
          "type": "uint256"
        }
      ],
      "name": "autoPriceAdjust",
      "outputs": [],
      "stateMutability": "nonpayable",
      "type": "function"
    }
  ],
  "bytecode": "0x60806040526000805534801561001457600080fd5b5061219f806100246000396000f3fe6080604052600436106100865760003560e01c8063b3de019c11610059578063b3de019c14610115578063b6aee1cf1461013e578063b9a2de3a14610167578063d090e47e14610190578063f7b10808146101bb57610086565b80633c0ac0ab1461008b578063598647f8146100b457806391e078bb146100d0578063a772c927146100f9575b600080fd5b34801561009757600080fd5b506100b260048036038101906100ad9190611586565b6101ff565b005b6100ce60048036038101906100c9919061154a565b610433565b005b3480156100dc57600080fd5b506100f760048036038101906100f29190611586565b610704565b005b610113600480360381019061010e919061154a565b61092b565b005b34801561012157600080fd5b5061013c6004803603810190610137919061154a565b610c32565b005b34801561014a57600080fd5b5061016560048036038101906101609190611521565b610dd8565b005b34801561017357600080fd5b5061018e60048036038101906101899190611521565b610ff0565b005b34801561019c57600080fd5b506101a5611464565b6040516101b29190611d8d565b60405180910390f35b3480156101c757600080fd5b506101e260048036038101906101dd9190611521565b61146a565b6040516101f6989796959493929190611e4d565b60405180910390f35b823373ffffffffffffffffffffffffffffffffffffffff166001600083815260200190815260200160002060010160009054906101000a900473ffffffffffffffffffffffffffffffffffffffff1673ffffffffffffffffffffffffffffffffffffffff16146102a4576040517f08c379a000000000000000000000000000000000000000000000000000000000815260040161029b90611c2d565b60405180910390fd5b836001600082815260200190815260200160002060030160009054906101000a900460ff16610308576040517f08c379a00000000000000000000000000000000000000000000000000000000081526004016102ff90611d4d565b60405180910390fd5b6000841161034b576040517f08c379a000000000000000000000000000000000000000000000000000000000815260040161034290611ced565b60405180910390fd5b6000831161038e576040517f08c379a000000000000000000000000000000000000000000000000000000000815260040161038590611cad565b60405180910390fd5b60006001600087815260200190815260200160002090506000848260040154426103b8919061201d565b6103c29190611f92565b866103cd9190611fc3565b82600201546103dc919061201d565b9050600081111561042a578082600201819055507f8aa4fa52648a6d15edce8a179c792c86f3719d0cc3c572cf90f91948f0f2cb688782604051610421929190611ecb565b60405180910390a15b50505050505050565b816001600082815260200190815260200160002060030160019054906101000a900460ff16610497576040517f08c379a000000000000000000000000000000000000000000000000000000000815260040161048e90611c0d565b60405180910390fd5b8260016000828152602001908152602001600020600401544211156104f1576040517f08c379a00000000000000000000000000000000000000000000000000000000081526004016104e890611c4d565b60405180910390fd5b600060016000868152602001908152602001600020905060008160030160006101000a81548160ff02191690831515021790555083341415610568576040517f08c379a000000000000000000000000000000000000000000000000000000000815260040161055f90611c8d565b60405180910390fd5b806006015484116105ae576040517f08c379a00000000000000000000000000000000000000000000000000000000081526004016105a590611d2d565b60405180910390fd5b600073ffffffffffffffffffffffffffffffffffffffff168160050160009054906101000a900473ffffffffffffffffffffffffffffffffffffffff1673ffffffffffffffffffffffffffffffffffffffff1614610676578060050160009054906101000a900473ffffffffffffffffffffffffffffffffffffffff1673ffffffffffffffffffffffffffffffffffffffff166108fc82600601549081150290604051600060405180830381858888f19350505050158015610674573d6000803e3d6000fd5b505b338160050160006101000a81548173ffffffffffffffffffffffffffffffffffffffff021916908373ffffffffffffffffffffffffffffffffffffffff1602179055508381600601819055507ff13cb67d4c8841d2c893b242b7d61382d8e3bb53c5c58a8584106e74e8c4721b8533866040516106f593929190611e16565b60405180910390a15050505050565b823373ffffffffffffffffffffffffffffffffffffffff166001600083815260200190815260200160002060010160009054906101000a900473ffffffffffffffffffffffffffffffffffffffff1673ffffffffffffffffffffffffffffffffffffffff16146107a9576040517f08c379a00000000000000000000000000000000000000000000000000000000081526004016107a090611c2d565b60405180910390fd5b836001600082815260200190815260200160002060030160009054906101000a900460ff1661080d576040517f08c379a000000000000000000000000000000000000000000000000000000000815260040161080490611d4d565b60405180910390fd5b60008411610850576040517f08c379a000000000000000000000000000000000000000000000000000000000815260040161084790611d6d565b60405180910390fd5b60008311610893576040517f08c379a000000000000000000000000000000000000000000000000000000000815260040161088a90611ccd565b60405180910390fd5b600060016000878152602001908152602001600020905060018160030160016101000a81548160ff02191690831515021790555084816002018190555083426108dc9190611f3c565b81600401819055507f44c53be110c6aa83aa83cd02e351ed172359268272ee1b5d31c0fe48db35c6c78686836004015460405161091b93929190611ef4565b60405180910390a1505050505050565b816001600082815260200190815260200160002060030160009054906101000a900460ff1661098f576040517f08c379a000000000000000000000000000000000000000000000000000000000815260040161098690611d4d565b60405180910390fd5b60006001600085815260200190815260200160002090508060010160009054906101000a900473ffffffffffffffffffffffffffffffffffffffff1673ffffffffffffffffffffffffffffffffffffffff163373ffffffffffffffffffffffffffffffffffffffff161415610a39576040517f08c379a0000000000000000000000000000000000000000000000000000000008152600401610a3090611bad565b60405180910390fd5b828314610a7b576040517f08c379a0000000000000000000000000000000000000000000000000000000008152600401610a7290611b8d565b60405180910390fd5b80600201548314610ac1576040517f08c379a0000000000000000000000000000000000000000000000000000000008152600401610ab890611bed565b60405180910390fd5b8060010160009054906101000a900473ffffffffffffffffffffffffffffffffffffffff1673ffffffffffffffffffffffffffffffffffffffff166108fc349081150290604051600060405180830381858888f19350505050158015610b2b573d6000803e3d6000fd5b5060008160010160009054906101000a900473ffffffffffffffffffffffffffffffffffffffff169050338260010160006101000a81548173ffffffffffffffffffffffffffffffffffffffff021916908373ffffffffffffffffffffffffffffffffffffffff16021790555060008260030160006101000a81548160ff0219169083151502179055507f4d3f6d68b42e1e039d6e7323b2b8bdeaf223f453882ce17a5984f4d6aabbdb33853334604051610be893929190611e16565b60405180910390a17f16b85f49bf01212961345d3016c9a531894accf62eb7680f2045d79185cc0ec0858233604051610c2393929190611da8565b60405180910390a15050505050565b813373ffffffffffffffffffffffffffffffffffffffff166001600083815260200190815260200160002060010160009054906101000a900473ffffffffffffffffffffffffffffffffffffffff1673ffffffffffffffffffffffffffffffffffffffff1614610cd7576040517f08c379a0000000000000000000000000000000000000000000000000000000008152600401610cce90611c2d565b60405180910390fd5b826001600082815260200190815260200160002060030160009054906101000a900460ff16610d3b576040517f08c379a0000000000000000000000000000000000000000000000000000000008152600401610d3290611d4d565b60405180910390fd5b60008311610d7e576040517f08c379a0000000000000000000000000000000000000000000000000000000008152600401610d7590611bcd565b60405180910390fd5b8260016000868152602001908152602001600020600201819055507f8aa4fa52648a6d15edce8a179c792c86f3719d0cc3c572cf90f91948f0f2cb688484604051610dca929190611ecb565b60405180910390a150505050565b60008111610e1b576040517f08c379a0000000000000000000000000000000000000000000000000000000008152600401610e1290611bcd565b60405180910390fd5b600080815480929190610e2d906120ab565b919050555060405180610100016040528060005481526020013373ffffffffffffffffffffffffffffffffffffffff16815260200182815260200160011515815260200160001515815260200160008152602001600073ffffffffffffffffffffffffffffffffffffffff168152602001600081525060016000805481526020019081526020016000206000820151816000015560208201518160010160006101000a81548173ffffffffffffffffffffffffffffffffffffffff021916908373ffffffffffffffffffffffffffffffffffffffff1602179055506040820151816002015560608201518160030160006101000a81548160ff02191690831515021790555060808201518160030160016101000a81548160ff02191690831515021790555060a0820151816004015560c08201518160050160006101000a81548173ffffffffffffffffffffffffffffffffffffffff021916908373ffffffffffffffffffffffffffffffffffffffff16021790555060e082015181600601559050507f23fb658c1698b92f5fe511a079c17ecf7965cbc3f1b873328c67e2c3c0820f1f6000543383604051610fe593929190611e16565b60405180910390a150565b806001600082815260200190815260200160002060030160019054906101000a900460ff16611054576040517f08c379a000000000000000000000000000000000000000000000000000000000815260040161104b90611c0d565b60405180910390fd5b8160016000828152602001908152602001600020600401544211156110ae576040517f08c379a00000000000000000000000000000000000000000000000000000000081526004016110a590611c4d565b60405180910390fd5b60006001600085815260200190815260200160002090508060010160009054906101000a900473ffffffffffffffffffffffffffffffffffffffff1673ffffffffffffffffffffffffffffffffffffffff163373ffffffffffffffffffffffffffffffffffffffff1614611157576040517f08c379a000000000000000000000000000000000000000000000000000000000815260040161114e90611d0d565b60405180910390fd5b806004015442101561119e576040517f08c379a000000000000000000000000000000000000000000000000000000000815260040161119590611c6d565b60405180910390fd5b600073ffffffffffffffffffffffffffffffffffffffff168160050160009054906101000a900473ffffffffffffffffffffffffffffffffffffffff1673ffffffffffffffffffffffffffffffffffffffff1614156112565760008160030160006101000a81548160ff0219169083151502179055507fd2aa34a4fdbbc6dff6a3e56f46e0f3ae2a31d7785ff3487aa5c95c642acea5018460008060405161124893929190611ddf565b60405180910390a15061145f565b8060010160009054906101000a900473ffffffffffffffffffffffffffffffffffffffff1673ffffffffffffffffffffffffffffffffffffffff166108fc82600601549081150290604051600060405180830381858888f193505050501580156112c4573d6000803e3d6000fd5b5060008160010160009054906101000a900473ffffffffffffffffffffffffffffffffffffffff1690508160050160009054906101000a900473ffffffffffffffffffffffffffffffffffffffff168260010160006101000a81548173ffffffffffffffffffffffffffffffffffffffff021916908373ffffffffffffffffffffffffffffffffffffffff16021790555060008260030160006101000a81548160ff02191690831515021790555060008260050160006101000a81548173ffffffffffffffffffffffffffffffffffffffff021916908373ffffffffffffffffffffffffffffffffffffffff160217905550600082600601819055507fd2aa34a4fdbbc6dff6a3e56f46e0f3ae2a31d7785ff3487aa5c95c642acea50185826000546040516113f593929190611e16565b60405180910390a17f16b85f49bf01212961345d3016c9a531894accf62eb7680f2045d79185cc0ec085828460010160009054906101000a900473ffffffffffffffffffffffffffffffffffffffff1660405161145493929190611da8565b60405180910390a150505b505050565b60005481565b60016020528060005260406000206000915090508060000154908060010160009054906101000a900473ffffffffffffffffffffffffffffffffffffffff16908060020154908060030160009054906101000a900460ff16908060030160019054906101000a900460ff16908060040154908060050160009054906101000a900473ffffffffffffffffffffffffffffffffffffffff16908060060154905088565b60008135905061151b81612152565b92915050565b60006020828403121561153357600080fd5b60006115418482850161150c565b91505092915050565b6000806040838503121561155d57600080fd5b600061156b8582860161150c565b925050602061157c8582860161150c565b9150509250929050565b60008060006060848603121561159b57600080fd5b60006115a98682870161150c565b93505060206115ba8682870161150c565b92505060406115cb8682870161150c565b9150509250925092565b6115de81612051565b82525050565b6115ed81612063565b82525050565b6115fc81612099565b82525050565b600061160f602c83611f2b565b91507f53656e742076616c756520646f6573206e6f74206d617463682074686520707260008301527f6f706572747920707269636500000000000000000000000000000000000000006020830152604082019050919050565b6000611675602383611f2b565b91507f4f776e65722063616e6e6f7420627579207468656972206f776e2070726f706560008301527f72747900000000000000000000000000000000000000000000000000000000006020830152604082019050919050565b60006116db601f83611f2b565b91507f5072696365206d7573742062652067726561746572207468616e207a65726f006000830152602082019050919050565b600061171b602183611f2b565b91507f496e636f72726563742070726f70657274792070726963652070726f7669646560008301527f64000000000000000000000000000000000000000000000000000000000000006020830152604082019050919050565b6000611781601f83611f2b565b91507f50726f7065727479206973206e6f7420696e2061756374696f6e206d6f6465006000830152602082019050919050565b60006117c1601683611f2b565b91507f4e6f74207468652070726f7065727479206f776e6572000000000000000000006000830152602082019050919050565b6000611801601183611f2b565b91507f41756374696f6e2068617320656e6465640000000000000000000000000000006000830152602082019050919050565b6000611841601983611f2b565b91507f41756374696f6e20686173206e6f7420656e64656420796574000000000000006000830152602082019050919050565b6000611881602783611f2b565b91507f53656e742076616c756520646f6573206e6f74206d617463682074686520626960008301527f64207072696365000000000000000000000000000000000000000000000000006020830152604082019050919050565b60006118e7602283611f2b565b91507f496e74657276616c206d7573742062652067726561746572207468616e207a6560008301527f726f0000000000000000000000000000000000000000000000000000000000006020830152604082019050919050565b600061194d602a83611f2b565b91507f41756374696f6e206475726174696f6e206d757374206265206772656174657260008301527f207468616e207a65726f000000000000000000000000000000000000000000006020830152604082019050919050565b60006119b3602383611f2b565b91507f44656372656d656e74206d7573742062652067726561746572207468616e207a60008301527f65726f00000000000000000000000000000000000000000000000000000000006020830152604082019050919050565b6000611a19602b83611f2b565b91507f4f6e6c79207468652070726f7065727479206f776e65722063616e20656e642060008301527f7468652061756374696f6e0000000000000000000000000000000000000000006020830152604082019050919050565b6000611a7f603683611f2b565b91507f42696420616d6f756e74206d75737420626520686967686572207468616e207460008301527f68652063757272656e74206869676865737420626964000000000000000000006020830152604082019050919050565b6000611ae5601683611f2b565b91507f50726f7065727479206973206e6f74206c6973746564000000000000000000006000830152602082019050919050565b6000611b25602883611f2b565b91507f5374617274696e67207072696365206d7573742062652067726561746572207460008301527f68616e207a65726f0000000000000000000000000000000000000000000000006020830152604082019050919050565b611b878161208f565b82525050565b60006020820190508181036000830152611ba681611602565b9050919050565b60006020820190508181036000830152611bc681611668565b9050919050565b60006020820190508181036000830152611be6816116ce565b9050919050565b60006020820190508181036000830152611c068161170e565b9050919050565b60006020820190508181036000830152611c2681611774565b9050919050565b60006020820190508181036000830152611c46816117b4565b9050919050565b60006020820190508181036000830152611c66816117f4565b9050919050565b60006020820190508181036000830152611c8681611834565b9050919050565b60006020820190508181036000830152611ca681611874565b9050919050565b60006020820190508181036000830152611cc6816118da565b9050919050565b60006020820190508181036000830152611ce681611940565b9050919050565b60006020820190508181036000830152611d06816119a6565b9050919050565b60006020820190508181036000830152611d2681611a0c565b9050919050565b60006020820190508181036000830152611d4681611a72565b9050919050565b60006020820190508181036000830152611d6681611ad8565b9050919050565b60006020820190508181036000830152611d8681611b18565b9050919050565b6000602082019050611da26000830184611b7e565b92915050565b6000606082019050611dbd6000830186611b7e565b611dca60208301856115d5565b611dd760408301846115d5565b949350505050565b6000606082019050611df46000830186611b7e565b611e0160208301856115d5565b611e0e60408301846115f3565b949350505050565b6000606082019050611e2b6000830186611b7e565b611e3860208301856115d5565b611e456040830184611b7e565b949350505050565b600061010082019050611e63600083018b611b7e565b611e70602083018a6115d5565b611e7d6040830189611b7e565b611e8a60608301886115e4565b611e9760808301876115e4565b611ea460a0830186611b7e565b611eb160c08301856115d5565b611ebe60e0830184611b7e565b9998505050505050505050565b6000604082019050611ee06000830185611b7e565b611eed6020830184611b7e565b9392505050565b6000606082019050611f096000830186611b7e565b611f166020830185611b7e565b611f236040830184611b7e565b949350505050565b600082825260208201905092915050565b6000611f478261208f565b9150611f528361208f565b9250827fffffffffffffffffffffffffffffffffffffffffffffffffffffffffffffffff03821115611f8757611f866120f4565b5b828201905092915050565b6000611f9d8261208f565b9150611fa88361208f565b925082611fb857611fb7612123565b5b828204905092915050565b6000611fce8261208f565b9150611fd98361208f565b9250817fffffffffffffffffffffffffffffffffffffffffffffffffffffffffffffffff0483118215151615612012576120116120f4565b5b828202905092915050565b60006120288261208f565b91506120338361208f565b925082821015612046576120456120f4565b5b828203905092915050565b600061205c8261206f565b9050919050565b60008115159050919050565b600073ffffffffffffffffffffffffffffffffffffffff82169050919050565b6000819050919050565b60006120a48261208f565b9050919050565b60006120b68261208f565b91507fffffffffffffffffffffffffffffffffffffffffffffffffffffffffffffffff8214156120e9576120e86120f4565b5b600182019050919050565b7f4e487b7100000000000000000000000000000000000000000000000000000000600052601160045260246000fd5b7f4e487b7100000000000000000000000000000000000000000000000000000000600052601260045260246000fd5b61215b8161208f565b811461216657600080fd5b5056fea26469706673582212201bf6dc36ca2ca140aedf5ccb43a150415a78d654771658d0ed1643a6f92ee3ce64736f6c63430008000033",
  "immutableReferences": {},
  "source": "// SPDX-License-Identifier: MIT\r\npragma solidity ^0.8.0;\r\n\r\ncontract EasyPropertyDeals {\r\n    struct Property {\r\n        uint256 id;\r\n        address owner;\r\n        uint256 price;\r\n        bool isListed;\r\n        bool isAuctionStarted;\r\n        uint256 auctionEndTime;\r\n        address highestBidder;\r\n        uint256 highestBid;\r\n    }\r\n\r\n    uint256 public propertyCounter = 0;\r\n    mapping(uint256 => Property) public properties;\r\n\r\n    event PropertyListed(uint256 propertyId, address owner, uint256 price);\r\n    event PaymentReceived(uint256 propertyId, address buyer, uint256 amount);\r\n    event OwnershipTransferred(uint256 propertyId, address from, address to);\r\n    event PriceChanged(uint256 propertyId, uint256 newPrice);\r\n    event AuctionStarted(\r\n        uint256 propertyId,\r\n        uint256 startingPrice,\r\n        uint256 auctionEndTime\r\n    );\r\n    event NewHighestBid(uint256 propertyId, address bidder, uint256 amount);\r\n    event AuctionEnded(uint256 propertyId, address winner, uint256 winningBid);\r\n\r\n    modifier onlyOwner(uint256 _propertyId) {\r\n        require(\r\n            properties[_propertyId].owner == msg.sender,\r\n            \"Not the property owner\"\r\n        );\r\n        _;\r\n    }\r\n\r\n    modifier isListed(uint256 _propertyId) {\r\n        require(properties[_propertyId].isListed, \"Property is not listed\");\r\n        _;\r\n    }\r\n\r\n\r\n   modifier validPayment(uint256 _propertyId) {\r\n        \r\n        uint256 price = properties[_propertyId].price;\r\n\r\n        require(msg.value >= price, \"Insufficient payment amount \");\r\n        require(msg.value <= price, \"Overpayment not allowed\");\r\n        _;\r\n    }\r\n\r\n\r\n    modifier isAuctionStarted(uint256 _propertyId) {\r\n        require(\r\n            properties[_propertyId].isAuctionStarted,\r\n            \"Property is not in auction mode\"\r\n        );\r\n        _;\r\n    }\r\n\r\n    modifier auctionActive(uint256 _propertyId) {\r\n        require(\r\n            block.timestamp <= properties[_propertyId].auctionEndTime,\r\n            \"Auction has ended\"\r\n        );\r\n        _;\r\n    }\r\n\r\n    modifier auctionEnded(uint256 _propertyId) {\r\n        require(\r\n            block.timestamp > properties[_propertyId].auctionEndTime,\r\n            \"Auction is still active\"\r\n        );\r\n        _;\r\n    }\r\n\r\n    /// @dev Function to list a property for sale\r\n    function listProperty(uint256 _price) public {\r\n        require(_price > 0, \"Price must be greater than zero\");\r\n\r\n        propertyCounter++;\r\n        properties[propertyCounter] = Property({\r\n            id: propertyCounter,\r\n            owner: msg.sender,\r\n            price: _price,\r\n            isListed: true,\r\n            isAuctionStarted: false,\r\n            auctionEndTime: 0,\r\n            highestBidder: address(0),\r\n            highestBid: 0\r\n        });\r\n\r\n        emit PropertyListed(propertyCounter, msg.sender, _price);\r\n    }\r\n\r\n    /// @dev Function to buy a listed property\r\nfunction buyProperty(uint256 _propertyId, uint256 _propertyPrice) \r\n    public \r\n    payable \r\n    isListed(_propertyId) \r\n{\r\n    Property storage property = properties[_propertyId];\r\n\r\n    // Ensure the caller is not the owner of the property\r\n    require(msg.sender != property.owner, \"Owner cannot buy their own property\");\r\n\r\n    // Ensure the sent value matches the specified property price\r\n    require(_propertyPrice == _propertyPrice, \"Sent value does not match the property price\");\r\n\r\n    // Ensure the specified price matches the listed price of the property\r\n    require(_propertyPrice == property.price, \"Incorrect property price provided\");\r\n\r\n    // Transfer funds to the property owner\r\n    payable(property.owner).transfer(msg.value);\r\n\r\n    // Transfer ownership to the buyer and delist the property\r\n    address previousOwner = property.owner;\r\n    property.owner = msg.sender;\r\n    property.isListed = false;\r\n\r\n    // Emit necessary events\r\n    emit PaymentReceived(_propertyId, msg.sender, msg.value);\r\n    emit OwnershipTransferred(_propertyId, previousOwner, msg.sender);\r\n}\r\n\r\n\r\nevent DebugInfo(uint256 propertyPrice, uint256 msgValue, address owner);\r\n\r\n    /// @dev Function to change the price of a listed property\r\n    function changePrice(uint256 _propertyId, uint256 _newPrice)\r\n        public\r\n        onlyOwner(_propertyId)\r\n        isListed(_propertyId)\r\n    {\r\n        require(_newPrice > 0, \"Price must be greater than zero\");\r\n\r\n        properties[_propertyId].price = _newPrice;\r\n\r\n        emit PriceChanged(_propertyId, _newPrice);\r\n    }\r\n\r\n    /// @dev Function to start an auction\r\n    function startAuction(\r\n        uint256 _propertyId,\r\n        uint256 _startingPrice,\r\n        uint256 _duration\r\n    ) public onlyOwner(_propertyId) isListed(_propertyId) {\r\n        require(_startingPrice > 0, \"Starting price must be greater than zero\");\r\n        require(_duration > 0, \"Auction duration must be greater than zero\");\r\n\r\n        Property storage property = properties[_propertyId];\r\n        property.isAuctionStarted = true;\r\n        property.price = _startingPrice;\r\n        property.auctionEndTime = block.timestamp + _duration;\r\n\r\n        emit AuctionStarted(\r\n            _propertyId,\r\n            _startingPrice,\r\n            property.auctionEndTime\r\n        );\r\n    }\r\n\r\n    /// @dev Function to bid in an auction\r\n    function bid(uint256 _propertyId, uint256 _bidPrice)\r\n        public\r\n        payable\r\n        isAuctionStarted(_propertyId)\r\n        auctionActive(_propertyId)\r\n    {\r\n        Property storage property = properties[_propertyId];\r\n        property.isListed = false;\r\n        // Validate the bid price matches the value sent with the transaction\r\n        require(\r\n            msg.value != _bidPrice,\r\n            \"Sent value does not match the bid price\"\r\n        );\r\n\r\n        // Ensure the bid is higher than the current highest bid\r\n        require(\r\n            _bidPrice > property.highestBid,\r\n            \"Bid amount must be higher than the current highest bid\"\r\n        );\r\n\r\n        // Refund the previous highest bidder\r\n        if (property.highestBidder != address(0)) {\r\n            payable(property.highestBidder).transfer(property.highestBid);\r\n        }\r\n\r\n        // Update the highest bid and the highest bidder\r\n        property.highestBidder = msg.sender;\r\n        property.highestBid = _bidPrice;\r\n\r\n        emit NewHighestBid(_propertyId, msg.sender, _bidPrice);\r\n    }\r\n\r\n    /// @dev Function to end an auction\r\n    function endAuction(uint256 _propertyId) public isAuctionStarted(_propertyId) auctionActive(_propertyId) {\r\n    Property storage property = properties[_propertyId];\r\n\r\n    // Ensure only the property owner can end the auction\r\n    require(msg.sender == property.owner, \"Only the property owner can end the auction\");\r\n\r\n    // Check if the auction time has ended\r\n    require(block.timestamp >= property.auctionEndTime, \"Auction has not ended yet\");\r\n\r\n    // Handle the case when there are no bids\r\n    if (property.highestBidder == address(0)) {\r\n        property.isListed = false; // Delist the property\r\n        emit AuctionEnded(_propertyId, address(0), 0);\r\n        return;\r\n    }\r\n\r\n    // Transfer funds to the property owner\r\n    payable(property.owner).transfer(property.highestBid);\r\n\r\n    // Transfer ownership to the highest bidder\r\n    address previousOwner = property.owner;\r\n    property.owner = property.highestBidder;\r\n\r\n    // Delist the property and mark the auction as ended\r\n    property.isListed = false;\r\n    property.highestBidder = address(0); // Reset the highest bidder\r\n    property.highestBid = 0; // Reset the highest bid\r\n\r\n    emit AuctionEnded(_propertyId, previousOwner, propertyCounter);\r\n    emit OwnershipTransferred(_propertyId, previousOwner, property.owner);\r\n}\r\n\r\n    /// @dev Function for auto price adjustment\r\n    function autoPriceAdjust(\r\n        uint256 _propertyId,\r\n        uint256 _decrement,\r\n        uint256 _interval\r\n    ) public onlyOwner(_propertyId) isListed(_propertyId) {\r\n        require(_decrement > 0, \"Decrement must be greater than zero\");\r\n        require(_interval > 0, \"Interval must be greater than zero\");\r\n\r\n        Property storage property = properties[_propertyId];\r\n        uint256 adjustedPrice = property.price -\r\n            _decrement *\r\n            ((block.timestamp - property.auctionEndTime) / _interval);\r\n\r\n        if (adjustedPrice > 0) {\r\n            property.price = adjustedPrice;\r\n            emit PriceChanged(_propertyId, adjustedPrice);\r\n        }\r\n    }\r\n}\r\n",
  "sourcePath": "C:\\Users\\khwae\\OneDrive\\Desktop\\CCBC 24-25\\603-Smart Contract\\Project\\backend\\contracts\\EasyPropertyDeals.sol",
  "compiler": {
    "name": "solc",
    "version": "0.8.0+commit.c7dfd78e.Emscripten.clang"
  },
  "schemaVersion": "3.4.16",
  "updatedAt": "2024-11-17T18:41:26.099Z",
  "networkType": "ethereum",
  "devdoc": {
    "kind": "dev",
    "methods": {
      "autoPriceAdjust(uint256,uint256,uint256)": {
        "details": "Function for auto price adjustment"
      },
      "bid(uint256,uint256)": {
        "details": "Function to bid in an auction"
      },
      "buyProperty(uint256,uint256)": {
        "details": "Function to buy a listed property"
      },
      "changePrice(uint256,uint256)": {
        "details": "Function to change the price of a listed property"
      },
      "endAuction(uint256)": {
        "details": "Function to end an auction"
      },
      "listProperty(uint256)": {
        "details": "Function to list a property for sale"
      },
      "startAuction(uint256,uint256,uint256)": {
        "details": "Function to start an auction"
      }
    },
    "version": 1
  },
  "userdoc": {
    "kind": "user",
    "methods": {},
    "version": 1
  }
}